:100000000C9439000C9456000C9456000C94560035
:100010000C9456000C9456000C9456000C94560008
:100020000C9456000C9456000C9456000C945600F8
:100030000C9456000C9456000C9456000C945600E8
:100040000C9456000C9456000C9456000C945600D8
:100050000C94560028062D06330638063D06430646
:1000600048067B06800686068D0693069A06A2063B
:10007000A90611241FBECFE5D8E0DEBFCDBF11E039
:10008000A0E6B0E0E4E6F4E102C005900D92AC30E9
:10009000B107D9F721E0ACE0B1E001C01D92A73172
:1000A000B207E1F70E94FA050C94300A0C940000A4
:1000B0000E94160562E170E080E090E00E94550524
:1000C0006EE080E00E94290563E270E080E090E04D
:1000D0000E94550567E080E00E942905609160005C
:1000E00070E080E090E00E94550560E081E00E94B1
:1000F00029058CE890E00E943D0560916000625106
:100100006093100181E00E94290508950E94630414
:100110000E94A90282E191E00E94970581E690E0A9
:100120000E94F1018091620061E090E00E947405FC
:1001300064E080E00E9429058DE990E00E943D0581
:1001400042E061E070E080E090E00E9409020E94DD
:10015000160586EA90E00E943D0567E081E00E9476
:10016000290564E170E080E090E00E94550542E0DE
:1001700061E070E080E090E00E9409020E941605B4
:1001800085EB90E00E943D0541E064EF71E080E086
:1001900090E00E9409020E94580008950E94F40312
:1001A00099278230910509F47FC034F4009761F0FB
:1001B000019709F441C0ADC08330910509F499C09D
:1001C000049709F4A3C0A5C08091110181111CC03E
:1001D000809110018F3009F49CC067E080E00E949C
:1001E0002905609160006F5F6093600070E080E0BF
:1001F00090E00E945505609110016F5F60931001BF
:1002000081E00E94290585C00E94160586EC90E0D9
:100210000E943D0560E081E00E94290585ED90E0A7
:100220000E943D0541E064EF71E080E090E00E94B3
:1002300009020E9416056DC08091110181111CC038
:1002400080911001882309F464C067E080E00E9477
:1002500029056091600061506093600070E080E06B
:1002600090E00E945505609110016150609310016B
:1002700081E00E9429054DC00E94160586EC90E0A1
:100280000E943D0560E081E00E94290585ED90E037
:100290000E943D0541E064EF71E080E090E00E9443
:1002A00009020E94160535C080911101811109C013
:1002B00081E0809311018CE00E94FF030E941605EB
:1002C00028C00E94160586EC90E00E943D0560E083
:1002D00081E00E94290585ED90E00E943D0541E006
:1002E00064EF71E080E090E00E9409020E94160530
:1002F00010C01092110160E081E690E00E94FF01C1
:100300008EE00E94FF030E94580003C084E18093A6
:1003100060006CE071E082E191E00E949D056091D7
:10032000600070E080E090E00E94AE0820910C0137
:1003300030910D0140910E0150910F010E9406086D
:1003400088238CF580911101882369F160E080E0B9
:100350000E94290581E00E94B20485EE90E00E948F
:100360003D0560910C0170910D0180910E019091FD
:100370000F010E947D080E94550561E081E690E032
:100380000E94FF016EE080E00E94290560910C014F
:1003900070910D0180910E0190910F010E947D08D6
:1003A0000E9455050895809111018823C9F060E0ED
:1003B00081E690E00E94FF0160E080E00E94290554
:1003C00083EF90E00E943D0560910C0170910D015A
:1003D00080910E0190910F010E947D080E945505A9
:1003E0000895CF93DF93EC0161E088810E941807A4
:1003F00060E088810E945807DF91CF9108950097AF
:1004000031F0FC0180810E94580780E0089581E06E
:1004100008958F929F92AF92BF92CF92DF92EF9208
:10042000FF920F931F93CF93DF9300D0CDB7DEB72A
:100430006B017C01423059F49B01AC0160E472E431
:100440008FE090E00E94CB096B017C010DC0413030
:1004500049F4A8EEB3E09B01AC010E94E1096B01F5
:100460007C0102C0411165C088E8C81683E1D80646
:10047000E104F104C8F088EAC81681E6D806E10470
:10048000F104A0F088E4C81688EED80681E0E806FA
:10049000F10470F080E2C81681EAD80687E0E80629
:1004A000F10440F414E007C011E005C012E003C0FD
:1004B00013E001C015E0E12FF0E03197EE0FFF1FD0
:1004C000EE5FFE4F6081718180E090E00E94AC0899
:1004D0004B015C01C701B6010E94AC08A501940163
:1004E0000E940B080E947D08F62E072F80E00E94D4
:1004F000B7078F2D81950E94E607812F0E94D007B4
:1005000010E011C0CE0101960E94E807CE010296CC
:100510000E94F6078981811103C08A818111F2CF7F
:100520000E94F2071F5F011768F70E94DE0780E054
:1005300001C081E00F900F90DF91CF911F910F913B
:10054000FF90EF90DF90CF90BF90AF909F908F90F3
:10055000089561E082E10E94180761E083E10E9452
:10056000180761E084E10E94180760E085E10E94BD
:10057000180760E086E10E94180760E087E10E94AA
:1005800018070895CF93DF931F92CDB7DEB761E0D0
:1005900085E10E94580761E086E10E94580761E00A
:1005A00087E10E94580761E083E10E94580761E0FB
:1005B00084E10E94580760E082E10E94580781E0D0
:1005C0008983BE016F5F7F4F85E10E949807898113
:1005D000882339F00BC0BE016F5F7F4F85E10E9419
:1005E000980789818823B9F380E02EC081E0898350
:1005F000BE016F5F7F4F86E10E9498078981882343
:1006000039F00BC0BE016F5F7F4F86E10E949807F3
:1006100089818823B9F381E017C081E08983BE0115
:100620006F5F7F4F87E10E9498078981882341F09F
:1006300089E00AC0BE016F5F7F4F87E10E94980783
:1006400089818823B9F382E00F90DF91CF910895DB
:10065000CF93DF931F92CDB7DEB761E085E10E94B3
:10066000580761E086E10E94580761E087E10E9437
:10067000580761E082E10E94580761E084E10E942E
:10068000580760E083E10E94580781E08983BE013A
:100690006F5F7F4F85E10E9498078981882339F039
:1006A0000BC0BE016F5F7F4F85E10E949807898173
:1006B0008823B9F383E02EC081E08983BE016F5F98
:1006C0007F4F86E10E9498078981882339F00BC00B
:1006D000BE016F5F7F4F86E10E9498078981882362
:1006E000B9F384E017C081E08983BE016F5F7F4F5B
:1006F00087E10E9498078981882341F089E00AC038
:10070000BE016F5F7F4F87E10E9498078981882330
:10071000B9F385E00F90DF91CF910895CF93DF93E8
:100720001F92CDB7DEB761E085E10E94580761E016
:1007300086E10E94580761E087E10E94580761E066
:1007400082E10E94580761E083E10E94580760E05F
:1007500084E10E94580781E08983BE016F5F7F4F6B
:1007600085E10E9498078981882339F00BC0BE017A
:100770006F5F7F4F85E10E94980789818823B9F3D5
:1007800086E02EC081E08983BE016F5F7F4F86E1E6
:100790000E9498078981882339F00BC0BE016F5FE2
:1007A0007F4F86E10E94980789818823B9F387E00B
:1007B00017C081E08983BE016F5F7F4F87E10E9490
:1007C00098078981882341F089E00AC0BE016F5FE4
:1007D0007F4F87E10E94980789818823B9F388E0D9
:1007E0000F90DF91CF9108950E94C202893031F4B9
:1007F0000E942803893011F40E948E0308951F93EC
:10080000CF93DF93D82F60E082E00E94580760E02A
:1008100081E00E9458071D2F12951F70C0E011C083
:10082000EC2FF0E0612F70E00C2E02C075956795FB
:100830000A94E2F76170E659FF4F80810E945807E1
:10084000CF5FC43068F361E083E00E94580789EF0E
:1008500090E00197F1F700C0000060E083E00E94A3
:10086000580792E49A95F1F700C0DF70C0E011C01C
:10087000EC2FF0E06D2F70E00C2E02C0759567959F
:100880000A94E2F76170E659FF4F80810E94580791
:10089000CF5FC43068F361E083E00E94580789EFBE
:1008A00090E00197F1F700C0000060E083E00E9453
:1008B000580783EF91E00197F1F700C00000DF9146
:1008C000CF911F910895CF93C0E009C0EC2FF0E0C5
:1008D000E659FF4F61E080810E941807CF5FC43066
:1008E000A8F361E081E00E94180761E082E00E94C5
:1008F000180761E083E00E9418078FE097E20197F4
:10090000F1F700C0000082E00E94FF0389EF90E051
:100910000197F1F700C0000088E20E94FF0389EF11
:1009200090E00197F1F700C0000081E00E94FF0312
:1009300087EE93E00197F1F700C0000086E00E9487
:10094000FF0389EF90E00197F1F700C000008EE00F
:100950000E94FF0389EF90E00197F1F700C00000CB
:10096000CF9108951F93CF93DF93D82F60E082E05B
:100970000E94580761E081E00E9458071D2F1295E0
:100980001F70C0E011C0EC2FF0E0612F70E00C2E62
:1009900002C0759567950A94E2F76170E659FF4FBA
:1009A00080810E945807CF5FC43068F361E083E024
:1009B0000E94580789EF90E00197F1F700C000000E
:1009C00060E083E00E94580792E49A95F1F700C036
:1009D000DF70C0E011C0EC2FF0E06D2F70E00C2E46
:1009E00002C0759567950A94E2F76170E659FF4F6A
:1009F00080810E945807CF5FC43068F361E083E0D4
:100A00000E94580789EF90E00197F1F700C00000BD
:100A100060E083E00E94580783EF91E00197F1F7CF
:100A200000C00000DF91CF911F91089581E00E94E6
:100A3000FF0387EE93E00197F1F700C0000082E02A
:100A40000E94FF0387EE93E00197F1F700C00000DA
:100A50000895811108C0603130F4862F8F7080684E
:100A60000E94FF030895813039F4603128F4862F05
:100A70008F70806C0E94FF0308950F931F93CF9394
:100A8000DF938C01FC018081C0E0D0E007C00E94B0
:100A9000B2042196F801EC0FFD1F80818111F7CF80
:100AA000DF91CF911F910F910895CF93DF93CDB731
:100AB000DEB72A970FB6F894DEBF0FBECDBFDC01BC
:100AC000CB014AE0BE016F5F7F4F0E94FB09CE0160
:100AD00001960E943D052A960FB6F894DEBF0FBE20
:100AE000CDBFDF91CF9108950F931F93CF936830BF
:100AF000D0F48C01862F90E00896880F880F880F1D
:100B00000E94FF0389EF90E00197F1F700C0000019
:100B1000C0E007C0F801EC0FF11D80810E94B20413
:100B2000CF5FC830B8F3CF911F910F91089560E067
:100B3000FC0180810E94180708950F931F93CF93A3
:100B4000DF9300D0CDB7DEB7892B09F449C061151A
:100B5000710509F447C08B0140E0BE016F5F7F4F14
:100B60008EE690E00E94F30680917000813069F477
:100B700080E090E0A0EABBE380931301909314011E
:100B8000A0931501B09316010EC0833061F48AE082
:100B900097EDA3E2BBE38093130190931401A0931C
:100BA0001501B093160189819A8124E6289FB0012E
:100BB000299F700D112480E090E00E94AC082091E4
:100BC00013013091140140911501509116010E94BA
:100BD0005E09F801608371838283938380E003C0A0
:100BE00081E001C081E00F900F90DF91CF911F91C4
:100BF0000F9108950E9486000E94CE00FDCFDC0177
:100C0000892B09F46AC086B18F7786B912968C91C8
:100C10001297813041F018F0833051F00CC087B149
:100C20008F7387B908C087B180648F7787B903C095
:100C300087B1806C87B91496EC9114974E2F50E0D1
:100C40004730510540F5FA01E65DFF4F0C94DB0992
:100C500086B18160897F86B91EC086B18E7F826031
:100C60008B7F86B918C086B183608B7F86B913C02D
:100C700086B18C7F846086B90EC086B181608D7F1D
:100C8000846086B908C086B18E7F866086B903C04D
:100C900086B1876086B913968C911397882319F0D3
:100CA000813029F007C087B18F7D87B903C087B134
:100CB000806287B915968C91882319F0813029F0CC
:100CC00007C086B1886086B903C086B1877F86B9C0
:100CD00086B1806886B981E0089580E00895892B07
:100CE000F1F1862F90E088309105D8F5FC01EF5C9A
:100CF000FF4F0C94DB0987B1807F87B981E00895AD
:100D000087B18160817F87B981E0089587B18E7F47
:100D10008260837F87B981E0089587B18360837F94
:100D200087B981E0089587B18C7F8460877F87B918
:100D300081E0089587B181608D7F8460877F87B966
:100D400081E0089587B18E7F8660877F87B981E0D3
:100D5000089587B18760877F87B981E0089580E033
:100D6000089581E00895892B29F086B1806486B9C1
:100D700081E0089580E00895FC01892B71F16115EF
:100D8000710569F196B194FFFDCF9F7E96B983817D
:100D9000882319F0813069F024C024B185B190E036
:100DA000982F8827820F911DFB019183808381E01A
:100DB000089524B185B190E0982F8827820F911D66
:100DC000082E892F000C881F990B000C881F991F73
:100DD000FB019183808381E0089580E0089580E0A5
:100DE000089581E00895FF920F931F93CF93DF93AF
:100DF0000097A9F061157105A1F0F42E8B01EC01AB
:100E00000E94FF056F2DCE010E946F06CE010E9449
:100E1000B306B801CE010E94BC0681E003C080E0A9
:100E200001C080E0DF91CF911F910F91FF90089555
:100E30008032C0F56230C0F5E82FE695E695E6957C
:100E40008770611117C0F0E0EE0FFF1FE458FF4FED
:100E50000190F081E02D408121E030E0B90102C035
:100E6000660F771F8A95E2F7CB01809584238083F4
:100E700080E008956130D1F4F0E0EE0FFF1FE458F8
:100E8000FF4F0190F081E02D408121E030E0B90179
:100E900002C0660F771F8A95E2F7CB01842B80830F
:100EA00080E008958FEF08958FEF089580E0089512
:100EB0008032C0F56230C0F5E82FE695E695E695FC
:100EC0008770611117C0F0E0EE0FFF1FEC57FF4F66
:100ED0000190F081E02D408121E030E0B90102C0B5
:100EE000660F771F8A95E2F7CB0180958423808374
:100EF00080E008956130D1F4F0E0EE0FFF1FEC5771
:100F0000FF4F0190F081E02D408121E030E0B901F8
:100F100002C0660F771F8A95E2F7CB01842B80838E
:100F200080E008958FEF08958FEF089580E0089591
:100F30008032D8F4E82FE695E695E6958770F0E0E4
:100F4000EE0FFF1FEC58FF4F0190F081E02D208144
:100F500030E0A90102C0559547958A95E2F7CA018C
:100F60008170FB01808380E008958FEF08958130C8
:100F700061F028F0823029F0833029F00FC020E0A2
:100F800005C028E003C028E401C020E493B7977BA4
:100F900093BF83B7822B83BF80E0089581E00895DB
:100FA0009FEF980F973040F493B7987F93BF93B714
:100FB000892B83BF80E0089581E0089583B7887FFF
:100FC00083BF12BE88B78E7F88BF089582BF089501
:100FD000FC01892B29F098B79170908380E00895E7
:100FE00081E0089588B7816088BF0895009761F017
:100FF00003B600FE05C021E0FC01208380E00895D7
:10100000FC01108280E0089581E008950E94E908C3
:1010100008F481E008950E941F080C9424090E949E
:101020001D0958F00E94160940F029F45F3F29F08D
:101030000C940D0951110C9458090C9413090E9439
:10104000350968F39923B1F3552391F3951B550B9B
:10105000BB27AA2762177307840738F09F5F5F4F8B
:10106000220F331F441FAA1FA9F335D00E2E3AF0CA
:10107000E0E832D091505040E695001CCAF72BD0E2
:10108000FE2F29D0660F771F881FBB1F2617370733
:101090004807AB07B0E809F0BB0B802DBF01FF2765
:1010A00093585F4F3AF09E3F510578F00C940D092C
:1010B0000C9458095F3FE4F3983ED4F386957795F6
:1010C0006795B795F7959F5FC9F7880F911D96951E
:1010D000879597F90895E1E0660F771F881FBB1F7A
:1010E000621773078407BA0720F0621B730B840B27
:1010F000BA0BEE1F88F7E09508950E943D0988F02D
:101100009F5798F0B92F9927B751B0F0E1F0660FCB
:10111000771F881F991F1AF0BA95C9F714C0B1300C
:1011200091F00E945709B1E008950C945709672F78
:10113000782F8827B85F39F0B93FCCF3869577953B
:101140006795B395D9F73EF4909580957095619524
:101150007F4F8F4F9F4F0895E89409C097FB3EF44F
:1011600090958095709561957F4F8F4F9F4F9923F4
:10117000A9F0F92F96E9BB279395F6958795779572
:101180006795B795F111F8CFFAF4BB0F11F460FF32
:101190001BC06F5F7F4F8F4F9F4F16C0882311F08A
:1011A00096E911C0772321F09EE8872F762F05C09E
:1011B000662371F096E8862F70E060E02AF09A9539
:1011C000660F771F881FDAF7880F9695879597F92E
:1011D0000895990F0008550FAA0BE0E8FEEF1616C8
:1011E0001706E807F907C0F012161306E407F5071B
:1011F00098F0621B730B840B950B39F40A2661F08F
:10120000232B242B252B21F408950A2609F4A14031
:10121000A6958FEF811D811D089597F99F6780E83E
:1012200070E060E008959FEF80EC089500240A9438
:101230001616170618060906089500240A941216B1
:101240001306140605060895092E0394000C11F4E4
:10125000882352F0BB0F40F4BF2B11F460FF04C091
:101260006F5F7F4F8F4F9F4F089557FD9058440FEA
:10127000551F59F05F3F71F04795880F97FB991FF5
:1012800061F09F3F79F087950895121613061406B2
:10129000551FF2CF4695F1DF08C01616170618063F
:1012A000991FF1CF86957105610508940895E8941A
:1012B000BB2766277727CB0197F908950E9471090C
:1012C0000C9424090E94160938F00E941D0920F090
:1012D000952311F00C940D090C94130911240C940E
:1012E00058090E94350970F3959FC1F3950F50E09E
:1012F000551F629FF001729FBB27F00DB11D639FC8
:10130000AA27F00DB11DAA1F649F6627B00DA11D6D
:10131000661F829F2227B00DA11D621F739FB00D13
:10132000A11D621F839FA00D611D221F749F332783
:10133000A00D611D231F849F600D211D822F762F1C
:101340006A2F11249F5750409AF0F1F088234AF0F9
:10135000EE0FFF1FBB1F661F771F881F9150504065
:10136000A9F79E3F510580F00C940D090C94580983
:101370005F3FE4F3983ED4F3869577956795B795EC
:10138000F795E7959F5FC1F7FE2B880F911D969506
:10139000879597F90895DB018F939F930E94E10948
:1013A000BF91AF91A29F800D911DA39F900DB29F01
:1013B000900D11240895EE0FFF1F0590F491E02D7C
:1013C00009940E94EC09A59F900DB49F900DA49FD5
:1013D000800D911D11240895A29FB001B39FC001FB
:1013E000A39F700D811D1124911DB29F700D811D51
:1013F0001124911D0895BB274A3031F4992322F41A
:10140000BDE2909581959F4F0C94070ABB27FB0185
:101410005527AA27880F991FAA1FA41710F0A41BED
:1014200083955051B9F7A05DAA3308F0A95DA19347
:10143000009779F7B111B1931192CB010C94200A66
:10144000DC01FC01672F71917723E1F7329704C02B
:101450007C916D9370836291AE17BF07C8F30895B6
:04146000F894FFCF2E
:10146400140C00040E0E1F000400040506070000FF
:101474000100000139003600330030003A00370023
:10148400340031003B003800350032007C7C7C7C29
:101494007C7C7C7C7C7C7C7C7C7C7C7C0057656C50
:1014A400636F6D6521002044656661756C742074FA
:1014B400656D703A005069636B2074656D70657278
:1014C40061747572650054686973204F7065726148
:1014D40074696F6E006973206E6F7420616C6C6F39
:1014E400776564210043757272656E742074656D4E
:1014F40070200043757272656E742074656D703A65
:0C15040020000100080040000901000464
:00000001FF
