:100000000C9439000C9456000C9456000C94560035
:100010000C9456000C9456000C9456000C94560008
:100020000C9456000C9456000C9456000C945600F8
:100030000C9456000C9456000C9456000C945600E8
:100040000C9456000C9456000C9456000C945600D8
:100050000C945600320637063D06420647064D060A
:10006000520685068A06900697069D06A406AC06EB
:10007000B30611241FBECFE5D8E0DEBFCDBF11E02F
:10008000A0E6B0E0E0E8F4E102C005900D92AC30EB
:10009000B107D9F721E0ACE0B1E001C01D92A83171
:1000A000B207E1F70E9404060C943E0A0C9400008B
:1000B0000E94200562E170E080E090E00E945F0510
:1000C0006EE080E00E94330563E270E080E090E043
:1000D0000E945F0567E080E00E9433056091600048
:1000E00070E080E090E00E945F0560E081E00E94A7
:1000F00033058CE890E00E944705609160006251F2
:100100006093110181E00E94330508950E946D04FF
:100110000E94B30283E191E00E94A10581E690E094
:100120000E94F30161E082E690E00E947E0564E0B7
:1001300080E00E9433058DE990E00E94470542E08F
:1001400061E070E080E090E00E940B020E942005D8
:1001500086EA90E00E94470567E081E00E9433054F
:1001600064E170E080E090E00E945F0542E061E0C1
:1001700070E080E090E00E940B020E94200585EB79
:1001800090E00E94470541E064EF71E080E090E07C
:100190000E940B020E94580008950E94FE039927B6
:1001A0008230910509F47FC034F4009761F0019723
:1001B00009F441C0ADC08330910509F499C004979A
:1001C00009F4A3C0A5C08091120181111CC08091C7
:1001D00011018F3009F49CC067E080E00E94330574
:1001E000609160006F5F6093600070E080E090E07D
:1001F0000E945F05609111016F5F6093110181E0C2
:100200000E94330585C00E94200586EC90E00E9484
:10021000470560E081E00E94330585ED90E00E9493
:10022000470541E064EF71E080E090E00E940B023E
:100230000E9420056DC08091120181111CC0809127
:100240001101882309F464C067E080E00E9433054F
:100250006091600061506093600070E080E090E029
:100260000E945F056091110161506093110181E06E
:100270000E9433054DC00E94200586EC90E00E944C
:10028000470560E081E00E94330585ED90E00E9423
:10029000470541E064EF71E080E090E00E940B02CE
:1002A0000E94200535C080911201811109C081E0B2
:1002B000809312018CE00E9409040E94200528C04E
:1002C0000E94200586EC90E00E94470560E081E0F6
:1002D0000E94330585ED90E00E94470541E064EF00
:1002E00071E080E090E00E940B020E94200510C0A7
:1002F0001092120160E081E690E00E9401028EE01F
:100300000E9409040E94580003C084E180936000A9
:1003100081E080930C016DE071E083E191E00E9447
:10032000A7056091600070E080E090E00E94BC084A
:1003300020910D0130910E0140910F01509110015B
:100340000E94140888238CF580911201882369F19A
:1003500060E080E00E94330581E00E94BC0485EEED
:1003600090E00E94470560910D0170910E0180910F
:100370000F01909110010E948B080E945F0561E0BF
:1003800081E690E00E9401026EE080E00E94330569
:1003900060910D0170910E0180910F0190911001FB
:1003A0000E948B080E945F050895809112018823A6
:1003B000C9F060E081E690E00E94010260E080E028
:1003C0000E94330583EF90E00E94470560910D0184
:1003D00070910E0180910F01909110010E948B0885
:1003E0000E945F050895CF93DF93EC0161E088815F
:1003F0000E94220760E088810E946207DF91CF910E
:100400000895009731F0FC0180810E94620780E02E
:10041000089581E008958F929F92AF92BF92CF92FC
:10042000DF92EF92FF920F931F93CF93DF9300D051
:10043000CDB7DEB76B017C01423059F49B01AC01B2
:1004400060E472E48FE090E00E94D9096B017C01C6
:100450000DC0413049F4A8EEB3E09B01AC010E940D
:10046000EF096B017C0102C041116DC088E8C8161C
:1004700083E1D806E104F104C8F088EAC81681E6F1
:10048000D806E104F104A0F088E4C81688EED80686
:1004900081E0E806F10470F080E2C81681EAD8062F
:1004A00087E0E806F10440F414E007C011E005C05D
:1004B00012E003C013E001C015E0E12FF0E0319736
:1004C000EE0FFF1FEE5FFE4F6081718172956295A6
:1004D0006F7067277F70672780E090E00E94BA08FE
:1004E0004B015C01C701B6010E94BA08A501940145
:1004F0000E9419080E948B08F62E072F0E941008F0
:1005000080E00E94C1078F2D81950E94F007812F06
:100510000E94DA0710E011C0CE0101960E94F20796
:10052000CE0102960E9400088981811103C08A8150
:100530008111F2CF0E94FC071F5F011768F70E942C
:10054000E80780E001C081E00F900F90DF91CF912C
:100550001F910F91FF90EF90DF90CF90BF90AF90E1
:100560009F908F90089561E082E10E94220761E0F0
:1005700083E10E94220761E084E10E94220760E09B
:1005800085E10E94220760E086E10E94220760E088
:1005900087E10E9422070895CF93DF931F92CDB782
:1005A000DEB761E085E10E94620761E086E10E94BA
:1005B000620761E087E10E94620761E083E10E94D7
:1005C000620761E084E10E94620760E082E10E94CC
:1005D000620781E08983BE016F5F7F4F85E10E94E2
:1005E000A2078981882339F00BC0BE016F5F7F4F5E
:1005F00085E10E94A20789818823B9F380E02EC09B
:1006000081E08983BE016F5F7F4F86E10E94A20770
:100610008981882339F00BC0BE016F5F7F4F86E16F
:100620000E94A20789818823B9F381E017C081E085
:100630008983BE016F5F7F4F87E10E94A207898196
:10064000882341F089E00AC0BE016F5F7F4F87E1D8
:100650000E94A20789818823B9F382E00F90DF917D
:10066000CF910895CF93DF931F92CDB7DEB761E0AE
:1006700085E10E94620761E086E10E94620761E015
:1006800087E10E94620761E082E10E94620761E007
:1006900084E10E94620760E083E10E94620781E0DA
:1006A0008983BE016F5F7F4F85E10E94A207898128
:1006B000882339F00BC0BE016F5F7F4F85E10E9438
:1006C000A20789818823B9F383E02EC081E0898362
:1006D000BE016F5F7F4F86E10E94A2078981882358
:1006E00039F00BC0BE016F5F7F4F86E10E94A20709
:1006F00089818823B9F384E017C081E08983BE0132
:100700006F5F7F4F87E10E94A2078981882341F0B4
:1007100089E00AC0BE016F5F7F4F87E10E94A20798
:1007200089818823B9F383E00F90DF91CF910895F9
:10073000CF93DF931F92CDB7DEB761E085E10E94D2
:10074000620761E086E10E94620761E087E10E9442
:10075000620761E082E10E94620761E083E10E943A
:10076000620760E084E10E94620781E08983BE0144
:100770006F5F7F4F85E10E94A2078981882339F04E
:100780000BC0BE016F5F7F4F85E10E94A207898188
:100790008823B9F386E02EC081E08983BE016F5FB4
:1007A0007F4F86E10E94A2078981882339F00BC020
:1007B000BE016F5F7F4F86E10E94A2078981882377
:1007C000B9F387E017C081E08983BE016F5F7F4F77
:1007D00087E10E94A2078981882341F089E00AC04D
:1007E000BE016F5F7F4F87E10E94A2078981882346
:1007F000B9F388E00F90DF91CF9108950E94CC0269
:10080000893031F40E943203893011F40E94980338
:1008100008951F93CF93DF93D82F60E082E00E946A
:10082000620760E081E00E9462071D2F12951F7031
:10083000C0E011C0EC2FF0E0612F70E00C2E02C080
:10084000759567950A94E2F76170E659FF4F8081CC
:100850000E946207CF5FC43068F361E083E00E94CA
:10086000620789EF90E00197F1F700C0000060E0B7
:1008700083E00E94620792E49A95F1F700C0DF706E
:10088000C0E011C0EC2FF0E06D2F70E00C2E02C024
:10089000759567950A94E2F76170E659FF4F80817C
:1008A0000E946207CF5FC43068F361E083E00E947A
:1008B000620789EF90E00197F1F700C0000060E067
:1008C00083E00E94620783EF91E00197F1F700C097
:1008D0000000DF91CF911F910895CF93C0E009C030
:1008E000EC2FF0E0E659FF4F61E080810E94220783
:1008F000CF5FC430A8F361E081E00E94220761E08D
:1009000082E00E94220761E083E00E9422078FE0DC
:1009100097E20197F1F700C0000082E00E9409040D
:1009200089EF90E00197F1F700C0000088E20E9493
:10093000090489EF90E00197F1F700C0000081E021
:100940000E94090487EE93E00197F1F700C00000D0
:1009500086E00E94090489EF90E00197F1F700C05A
:1009600000008EE00E94090489EF90E00197F1F702
:1009700000C00000CF9108951F93CF93DF93D82F2D
:1009800060E082E00E94620761E081E00E9462070D
:100990001D2F12951F70C0E011C0EC2FF0E0612FE9
:1009A00070E00C2E02C0759567950A94E2F76170AD
:1009B000E659FF4F80810E946207CF5FC43068F321
:1009C00061E083E00E94620789EF90E00197F1F710
:1009D00000C0000060E083E00E94620792E49A9504
:1009E000F1F700C0DF70C0E011C0EC2FF0E06D2F18
:1009F00070E00C2E02C0759567950A94E2F761705D
:100A0000E659FF4F80810E946207CF5FC43068F3D0
:100A100061E083E00E94620789EF90E00197F1F7BF
:100A200000C0000060E083E00E94620783EF91E075
:100A30000197F1F700C00000DF91CF911F91089559
:100A400081E00E94090487EE93E00197F1F700C06E
:100A5000000082E00E94090487EE93E00197F1F71D
:100A600000C000000895811108C0603130F4862F65
:100A70008F7080680E9409040895813039F46031D4
:100A800028F4862F8F70806C0E94090408950F93BC
:100A90001F93CF93DF938C01FC018081C0E0D0E0F5
:100AA00007C00E94BC042196F801EC0FFD1F808155
:100AB0008111F7CFDF91CF911F910F910895CF93BF
:100AC000DF93CDB7DEB72A970FB6F894DEBF0FBE1F
:100AD000CDBFDC01CB014AE0BE016F5F7F4F0E94BA
:100AE000090ACE0101960E9447052A960FB6F8948E
:100AF000DEBF0FBECDBFDF91CF9108950F931F933F
:100B0000CF936830D0F48C01862F90E00896880F40
:100B1000880F880F0E94090489EF90E00197F1F790
:100B200000C00000C0E007C0F801EC0FF11D80819B
:100B30000E94BC04CF5FC830B8F3CF911F910F91D2
:100B4000089560E0FC0180810E94220708950F93C0
:100B50001F93CF93DF9300D0CDB7DEB7892B09F475
:100B600049C06115710509F447C08B0140E0BE0121
:100B70006F5F7F4F8EE690E00E94FD0680917000CF
:100B8000813069F480E090E0A0EABBE38093140137
:100B900090931501A0931601B09317010EC08330F6
:100BA00061F48AE097EDA3E2BBE380931401909394
:100BB0001501A0931601B093170189819A8124E64B
:100BC000289FB001299F700D112480E090E00E94C1
:100BD000BA082091140130911501409116015091ED
:100BE00017010E946C09F8016083718382839383EB
:100BF00080E003C081E001C081E00F900F90DF91A1
:100C0000CF911F910F9108950E9486000E94CD0000
:100C1000FDCFDC01892B09F46AC086B18F7786B9D4
:100C200012968C911297813041F018F0833051F078
:100C30000CC087B18F7387B908C087B180648F7784
:100C400087B903C087B1806C87B91496EC9114976B
:100C50004E2F50E04730510540F5FA01E65DFF4F59
:100C60000C94E90986B18160897F86B91EC086B17E
:100C70008E7F82608B7F86B918C086B183608B7F40
:100C800086B913C086B18C7F846086B90EC086B1E8
:100C900081608D7F846086B908C086B18E7F866052
:100CA00086B903C086B1876086B913968C91139775
:100CB000882319F0813029F007C087B18F7D87B96B
:100CC00003C087B1806287B915968C91882319F08B
:100CD000813029F007C086B1886086B903C086B12B
:100CE000877F86B986B1806886B981E0089580E003
:100CF0000895892BF1F1862F90E088309105D8F581
:100D0000FC01EF5CFF4F0C94E90987B1807F87B944
:100D100081E0089587B18160817F87B981E008957E
:100D200087B18E7F8260837F87B981E0089587B124
:100D30008360837F87B981E0089587B18C7F846069
:100D4000877F87B981E0089587B181608D7F846056
:100D5000877F87B981E0089587B18E7F8660877F1E
:100D600087B981E0089587B18760877F87B981E07F
:100D7000089580E0089581E00895892B29F086B1D7
:100D8000806486B981E0089580E00895FC01892B94
:100D900071F16115710569F196B194FFFDCF9F7EE8
:100DA00096B98381882319F0813069F024C024B179
:100DB00085B190E0982F8827820F911DFB019183C8
:100DC000808381E0089524B185B190E0982F882731
:100DD000820F911D082E892F000C881F990B000C83
:100DE000881F991FFB019183808381E0089580E033
:100DF000089580E0089581E00895FF920F931F9376
:100E0000CF93DF930097A9F061157105A1F0F42E3F
:100E10008B01EC010E9409066F2DCE010E9479061C
:100E2000CE010E94BD06B801CE010E94C60681E037
:100E300003C080E001C080E0DF91CF911F910F914E
:100E4000FF9008958032C0F56230C0F5E82FE69536
:100E5000E695E6958770611117C0F0E0EE0FFF1F71
:100E6000E458FF4F0190F081E02D408121E030E017
:100E7000B90102C0660F771F8A95E2F7CB01809512
:100E80008423808380E008956130D1F4F0E0EE0F98
:100E9000FF1FE458FF4F0190F081E02D408121E0D9
:100EA00030E0B90102C0660F771F8A95E2F7CB01E7
:100EB000842B808380E008958FEF08958FEF08954D
:100EC00080E008958032C0F56230C0F5E82FE695E5
:100ED000E695E6958770611117C0F0E0EE0FFF1FF1
:100EE000EC57FF4F0190F081E02D408121E030E090
:100EF000B90102C0660F771F8A95E2F7CB01809592
:100F00008423808380E008956130D1F4F0E0EE0F17
:100F1000FF1FEC57FF4F0190F081E02D408121E051
:100F200030E0B90102C0660F771F8A95E2F7CB0166
:100F3000842B808380E008958FEF08958FEF0895CC
:100F400080E008958032D8F4E82FE695E695E6959E
:100F50008770F0E0EE0FFF1FEC58FF4F0190F0811B
:100F6000E02D208130E0A90102C0559547958A9572
:100F7000E2F7CA018170FB01808380E008958FEF62
:100F80000895813061F028F0823029F0833029F013
:100F90000FC020E005C028E003C028E401C020E421
:100FA00093B7977B93BF83B7822B83BF80E008956D
:100FB00081E008959FEF980F973040F493B7987FA2
:100FC00093BF93B7892B83BF80E0089581E0089594
:100FD00083B7887F83BF12BE88B78E7F88BF08958E
:100FE00082BF0895FC01892B29F098B791709083F6
:100FF00080E0089581E0089588B7816088BF0895F2
:10100000009761F003B600FE05C021E0FC012083DB
:1010100080E00895FC01108280E0089581E0089549
:1010200089B78E7F89BF08950E94F70808F481E090
:1010300008950E942D080C9432090E942B0958F043
:101040000E94240940F029F45F3F29F00C941B0909
:1010500051110C9466090C9421090E94430968F30C
:101060009923B1F3552391F3951B550BBB27AA2761
:1010700062177307840738F09F5F5F4F220F331F9B
:10108000441FAA1FA9F335D00E2E3AF0E0E832D063
:1010900091505040E695001CCAF72BD0FE2F29D066
:1010A000660F771F881FBB1F261737074807AB0738
:1010B000B0E809F0BB0B802DBF01FF2793585F4FAD
:1010C0003AF09E3F510578F00C941B090C94660988
:1010D0005F3FE4F3983ED4F3869577956795B7958F
:1010E000F7959F5FC9F7880F911D9695879597F99A
:1010F0000895E1E0660F771F881FBB1F6217730713
:101100008407BA0720F0621B730B840BBA0BEE1F27
:1011100088F7E09508950E944B0988F09F5798F052
:10112000B92F9927B751B0F0E1F0660F771F881FEC
:10113000991F1AF0BA95C9F714C0B13091F00E9406
:101140006509B1E008950C946509672F782F882709
:10115000B85F39F0B93FCCF3869577956795B3952D
:10116000D9F73EF490958095709561957F4F8F4F9C
:101170009F4F0895E89409C097FB3EF490958095A1
:10118000709561957F4F8F4F9F4F9923A9F0F92F4D
:1011900096E9BB279395F695879577956795B795CB
:1011A000F111F8CFFAF4BB0F11F460FF1BC06F5FB1
:1011B0007F4F8F4F9F4F16C0882311F096E911C0C3
:1011C000772321F09EE8872F762F05C0662371F0E4
:1011D00096E8862F70E060E02AF09A95660F771FF8
:1011E000881FDAF7880F9695879597F90895990FD4
:1011F0000008550FAA0BE0E8FEEF16161706E807E1
:10120000F907C0F012161306E407F50798F0621B01
:10121000730B840B950B39F40A2661F0232B242BD6
:10122000252B21F408950A2609F4A140A6958FEFF5
:10123000811D811D089597F99F6780E870E060E047
:1012400008959FEF80EC089500240A94161617065F
:1012500018060906089500240A94121613061406A7
:1012600005060895092E0394000C11F4882352F00A
:10127000BB0F40F4BF2B11F460FF04C06F5F7F4FC2
:101280008F4F9F4F089557FD9058440F551F59F0A9
:101290005F3F71F04795880F97FB991F61F09F3F63
:1012A00079F087950895121613061406551FF2CF8C
:1012B0004695F1DF08C0161617061806991FF1CFDC
:1012C00086957105610508940895E894BB27662703
:1012D0007727CB0197F908950E947F090C94320972
:1012E0000E94240938F00E942B0920F0952311F068
:1012F0000C941B090C94210911240C9466090E947A
:10130000430970F3959FC1F3950F50E0551F629FFD
:10131000F001729FBB27F00DB11D639FAA27F00D4E
:10132000B11DAA1F649F6627B00DA11D661F829F75
:101330002227B00DA11D621F739FB00DA11D621F5A
:10134000839FA00D611D221F749F3327A00D611D77
:10135000231F849F600D211D822F762F6A2F112459
:101360009F5750409AF0F1F088234AF0EE0FFF1F8C
:10137000BB1F661F771F881F91505040A9F79E3FE3
:10138000510580F00C941B090C9466095F3FE4F34F
:10139000983ED4F3869577956795B795F795E79539
:1013A0009F5FC1F7FE2B880F911D9695879597F942
:1013B0000895DB018F939F930E94EF09BF91AF9136
:1013C000A29F800D911DA39F900DB29F900D11249F
:1013D0000895EE0FFF1F0590F491E02D09940E94EF
:1013E000FA09A59F900DB49F900DA49F800D911DAB
:1013F00011240895A29FB001B39FC001A39F700D57
:10140000811D1124911DB29F700D811D1124911D0C
:101410000895BB274A3031F4992322F4BDE2909518
:1014200081959F4F0C94150ABB27FB015527AA27CE
:10143000880F991FAA1FA41710F0A41B8395505161
:10144000B9F7A05DAA3308F0A95DA193009779F7D9
:10145000B111B1931192CB010C942E0ADC01FC0165
:10146000672F71917723E1F7329704C07C916D93D8
:1014700070836291AE17BF07C8F30895F894FFCF49
:10148000140C040E0E0E1F000400040506070000D5
:101490000100050139003600330030003A00370002
:1014A000340031003B003800350032007C7C7C7C0D
:1014B0007C7C7C7C7C7C7C7C7C7C7C7C0057656C34
:1014C000636F6D6521002044656661756C742074DE
:1014D000656D703A005069636B2074656D7065725C
:1014E00061747572650054686973204F706572612C
:1014F00074696F6E006973206E6F7420616C6C6F1D
:10150000776564210043757272656E742074656D31
:1015100070200043757272656E742074656D703A48
:0C15200020000100080040000901000448
:00000001FF
