S0160000416972436F6E646974696F6E65722E7372656374
S11300000C9439000C9456000C9456000C94560031
S11300100C9456000C9456000C9456000C94560004
S11300200C9456000C9456000C9456000C945600F4
S11300300C9456000C9456000C9456000C945600E4
S11300400C9456000C9456000C9456000C945600D4
S11300500C945600E706EC06F206F706FC060207C7
S113006007073A073F0745074C0752075907610737
S1130070680711241FBECFE5D8E0DEBFCDBF11E075
S1130080A0E6B0E0EAEEF5E102C005900D92AC30D6
S1130090B107D9F721E0ACE0B1E001C01D92AB316A
S11300A0B207E1F70E94B9060C94F30A0C9400001D
S11300B010920C0108950E94D50562E170E080E081
S11300C090E00E9414066EE080E00E94E80563E27E
S11300D070E080E090E00E94140667E080E00E94F7
S11300E0E8056091600070E080E090E00E941406F2
S11300F060E081E00E94E8058CE890E00E94FC0545
S11301006091600062516093110181E00E94E805F2
S113011008950E9422050E94680386E191E00E94EE
S1130120560681E690E00E9404028091620061E03C
S113013090E00E94330664E080E00E94E8058DE9C7
S113014090E00E94FC0542E061E070E080E090E015
S11301500E941C020E94D50586EA90E00E94FC05DC
S113016067E081E00E94E80564E170E080E090E0EF
S11301700E94140642E061E070E080E090E00E949A
S11301801C020E94D50585EB90E00E94FC0541E02D
S113019064EF71E080E090E00E941C020E945B002A
S11301A008950E94B30499278230910509F47FC011
S11301B034F4009761F0019709F441C0ADC0833075
S11301C0910509F499C0049709F4A3C0A5C08091CE
S11301D0120181111CC0809111018F3009F49CC05F
S11301E067E080E00E94E805609160006F5F6093C3
S11301F0600070E080E090E00E94140660911101BC
S11302006F5F6093110181E00E94E80585C00E9440
S1130210D50586EC90E00E94FC0560E081E00E9438
S1130220E80585ED90E00E94FC0541E064EF71E093
S113023080E090E00E941C020E94D5056DC0809170
S1130240120181111CC080911101882309F464C03A
S113025067E080E00E94E80560916000615060936F
S1130260600070E080E090E00E941406609111014B
S113027061506093110181E00E94E8054DC00E9425
S1130280D50586EC90E00E94FC0560E081E00E94C8
S1130290E80585ED90E00E94FC0541E064EF71E023
S11302A080E090E00E941C020E94D50535C0809138
S11302B01201811109C081E0809312018CE00E9437
S11302C0BE040E94D50528C00E94D50586EC90E0A6
S11302D00E94FC0560E081E00E94E80585ED90E065
S11302E00E94FC0541E064EF71E080E090E00E9430
S11302F01C020E94D50510C01092120160E081E634
S113030090E00E9412028EE00E94BE040E945B00F4
S113031003C084E1809360006DE071E086E191E0C8
S11303200E945C0680910C0181116DC081E0809374
S11303300C016091600070E080E090E00E9471091F
S113034020910D0130910E0140910F015091100147
S11303500E94C90888238CF580911201882369F1D1
S113036060E080E00E94E80581E00E94710585EE6E
S113037090E00E94FC0560910D0170910E01809146
S11303800F01909110010E9440090E94140661E03F
S113039081E690E00E9412026EE080E00E94E8058F
S11303A060910D0170910E0180910F0190911001E7
S11303B00E9440090E9414061DC0809112018823E6
S11303C0C9F060E081E690E00E94120260E080E003
S11303D00E94E80583EF90E00E94FC0560910D0106
S11303E070910E0180910F01909110010E944009BB
S11303F00E94140628E530E041E064EF71E080E0FB
S113040090E00E94C2020895CF93DF93EC0161E073
S113041088810E94D70760E088810E941708DF91D5
S1130420CF910895009731F0FC0180810E94170854
S113043080E0089581E008958F929F92AF92BF92D9
S1130440CF92DF92EF92FF920F931F93CF93DF939C
S113045000D0CDB7DEB76B017C01423059F49B016B
S1130460AC0160E472E48FE090E00E948E0A6B01BC
S11304707C010DC0413049F4A8EEB3E09B01AC010E
S11304800E94A40A6B017C0102C041116BC088E880
S1130490C81683E1D806E104F104C8F088EAC81656
S11304A081E6D806E104F104A0F088E4C81688EED9
S11304B0D80681E0E806F10470F080E2C81681EA0B
S11304C0D80687E0E806F10440F414E007C011E020
S11304D005C012E003C013E001C015E0E12FF0E015
S11304E03197EE0FFF1FEE5FFE4F608171817295B1
S11304F062956F7067277F70672780E090E00E94A5
S11305006F094B015C01C701B6010E946F09A50187
S113051094010E94CE080E944009F62E072F80E025
S11305200E9476088F2D81950E94A508812F0E9434
S11305308F0810E011C0CE0101960E94A708CE01D9
S113054002960E94B5088981811103C08A818111B4
S1130550F2CF0E94B1081F5F011768F70E949D083F
S113056080E001C081E00F900F90DF91CF911F9147
S11305700F91FF90EF90DF90CF90BF90AF909F903E
S11305808F9008954F925F926F927F92BF92CF9215
S1130590DF92EF92FF920F931F93CF93DF931F92FB
S11305A0CDB7DEB76B017C01B42E8901CE01019673
S11305B00E94B5088981811179C082E0B8120BC00C
S11305C0A701960160E472E48FE090E00E948E0A35
S11305D06B017C010EC081E0B81209C0A8EEB3E043
S11305E0A70196010E94A40A6B017C0102C0B1100C
S11305F05FC088E8C81683E1D806E104F104D8F0A6
S113060088EAC81681E6D806E104F104B8F088E463
S1130610C81688EED80681E0E806F10498F080E276
S1130620C81681EAD80687E0E806F10480F46894E5
S1130630BB24B2F810C0BB24B3940DC06894BB248F
S1130640B1F809C00F2EF3E0BF2EF02D04C00F2E19
S1130650F5E0BF2EF02DEB2DF0E03197EE0FFF1FEC
S1130660EE5FFE4F6081718180E090E00E946F092F
S11306702B013C01C701B6010E946F09A30192013D
S11306800E94CE080E944009F62E70931501109323
S11306901401009313010E94C5088F2D81950E94B7
S11306A0A5088B2D0E948F0880E003C081E001C063
S11306B081E00F90DF91CF911F910F91FF90EF9008
S11306C0DF90CF90BF907F906F905F904F90089590
S11306D061E082E10E94D70761E083E10E94D707CD
S11306E061E084E10E94D70760E085E10E94D707BA
S11306F060E086E10E94D70760E087E10E94D707A7
S11307000895CF93DF931F92CDB7DEB761E085E103
S11307100E94170861E086E10E94170861E087E102
S11307200E94170861E083E10E94170861E084E1F8
S11307300E94170860E082E10E94170881E0898323
S1130740BE016F5F7F4F85E10E945708898188232E
S113075039F00BC0BE016F5F7F4F85E10E945708DF
S113076089818823B9F380E02EC081E08983BE01AA
S11307706F5F7F4F86E10E9457088981882339F093
S11307800BC0BE016F5F7F4F86E10E9457088981CD
S11307908823B9F381E017C081E08983BE016F5FCC
S11307A07F4F87E10E9457088981882341F089E0BF
S11307B00AC0BE016F5F7F4F87E10E94570889819D
S11307C08823B9F382E00F90DF91CF910895CF93FE
S11307D0DF931F92CDB7DEB761E085E10E94170871
S11307E061E086E10E94170861E087E10E94170832
S11307F061E082E10E94170861E084E10E94170829
S113080060E083E10E94170881E08983BE016F5F85
S11308107F4F85E10E9457088981882339F00BC0F6
S1130820BE016F5F7F4F85E10E945708898188234D
S1130830B9F383E02EC081E08983BE016F5F7F4FEF
S113084086E10E9457088981882339F00BC0BE01D4
S11308506F5F7F4F86E10E94570889818823B9F32F
S113086084E017C081E08983BE016F5F7F4F87E119
S11308700E9457088981882341F089E00AC0BE019B
S11308806F5F7F4F87E10E94570889818823B9F3FE
S113089083E00F90DF91CF910895CF93DF931F9260
S11308A0CDB7DEB761E085E10E94170861E086E11B
S11308B00E94170861E087E10E94170861E082E165
S11308C00E94170861E083E10E94170860E084E158
S11308D00E94170881E08983BE016F5F7F4F85E125
S11308E00E9457088981882339F00BC0BE016F5FCD
S11308F07F4F85E10E94570889818823B9F386E0F8
S11309002EC081E08983BE016F5F7F4F86E10E9424
S113091057088981882339F00BC0BE016F5F7F4F70
S113092086E10E94570889818823B9F387E017C0BC
S113093081E08983BE016F5F7F4F87E10E94570882
S11309408981882341F089E00AC0BE016F5F7F4F2F
S113095087E10E94570889818823B9F388E00F90C2
S1130960DF91CF9108950E948103893031F40E9470
S1130970E703893011F40E944D0408951F93CF9327
S1130980DF93D82F60E082E00E94170860E081E0E6
S11309900E9417081D2F12951F70C0E011C0EC2F84
S11309A0F0E0612F70E00C2E02C0759567950A94F3
S11309B0E2F76170E659FF4F80810E941708CF5F0C
S11309C0C43068F361E083E00E94170889EF90E087
S11309D00197F1F700C0000060E083E00E9417086F
S11309E092E49A95F1F700C0DF70C0E011C0EC2FDB
S11309F0F0E06D2F70E00C2E02C0759567950A9497
S1130A00E2F76170E659FF4F80810E941708CF5FBB
S1130A10C43068F361E083E00E94170889EF90E036
S1130A200197F1F700C0000060E083E00E9417081E
S1130A3083EF91E00197F1F700C00000DF91CF91BF
S1130A401F910895CF93C0E009C0EC2FF0E0E65960
S1130A50FF4F61E080810E94D707CF5FC430A8F3C5
S1130A6061E081E00E94D70761E082E00E94D7073D
S1130A7061E083E00E94D7078FE097E20197F1F7E6
S1130A8000C0000082E00E94BE0489EF90E001975C
S1130A90F1F700C0000088E20E94BE0489EF90E0F4
S1130AA00197F1F700C0000081E00E94BE0487EEC8
S1130AB093E00197F1F700C0000086E00E94BE04B5
S1130AC089EF90E00197F1F700C000008EE00E94EA
S1130AD0BE0489EF90E00197F1F700C00000CF91C8
S1130AE008951F93CF93DF93D82F60E082E00E9494
S1130AF0170861E081E00E9417081D2F12951F70EE
S1130B00C0E011C0EC2FF0E0612F70E00C2E02C0A9
S1130B10759567950A94E2F76170E659FF4F8081F5
S1130B200E941708CF5FC43068F361E083E00E943D
S1130B30170889EF90E00197F1F700C0000060E02A
S1130B4083E00E94170892E49A95F1F700C0DF70E1
S1130B50C0E011C0EC2FF0E06D2F70E00C2E02C04D
S1130B60759567950A94E2F76170E659FF4F8081A5
S1130B700E941708CF5FC43068F361E083E00E94ED
S1130B80170889EF90E00197F1F700C0000060E0DA
S1130B9083E00E94170883EF91E00197F1F700C00A
S1130BA00000DF91CF911F91089581E00E94BE045F
S1130BB087EE93E00197F1F700C0000082E00E9405
S1130BC0BE0487EE93E00197F1F700C0000008959A
S1130BD0811108C0603130F4862F8F7080680E94C4
S1130BE0BE040895813039F4603128F4862F8F7063
S1130BF0806C0E94BE0408950F931F93CF93DF93DC
S1130C008C01FC018081C0E0D0E007C00E94710526
S1130C102196F801EC0FFD1F80818111F7CFDF9140
S1130C20CF911F910F910895CF93DF93CDB7DEB786
S1130C302A970FB6F894DEBF0FBECDBFDC01CB01FF
S1130C404AE0BE016F5F7F4F0E94BE0ACE0101964B
S1130C500E94FC052A960FB6F894DEBF0FBECDBFE6
S1130C60DF91CF9108950F931F93CF936830D0F401
S1130C708C01862F90E00896880F880F880F0E94B9
S1130C80BE0489EF90E00197F1F700C00000C0E0D6
S1130C9007C0F801EC0FF11D80810E947105CF5F40
S1130CA0C830B8F3CF911F910F91089560E0FC0113
S1130CB080810E94D70708950F931F93CF93DF93EA
S1130CC000D0CDB7DEB7892B09F449C06115710591
S1130CD009F447C08B0140E0BE016F5F7F4F8EE691
S1130CE090E00E94B20780917000813069F480E046
S1130CF090E0A0EABBE38093170190931801A093BE
S1130D001901B0931A010EC0833061F48AE097EDA3
S1130D10A3E2BBE38093170190931801A0931901F8
S1130D20B0931A0189819A8124E6289FB001299FF2
S1130D30700D112480E090E00E946F09209117014A
S1130D40309118014091190150911A010E94210A11
S1130D50F801608371838283938380E003C081E020
S1130D6001C081E00F900F90DF91CF911F910F91FF
S1130D7008950E9489000E94D100FDCFDC01892BD7
S1130D8009F46AC086B18F7786B912968C9112974E
S1130D90813041F018F0833051F00CC087B18F736B
S1130DA087B908C087B180648F7787B903C087B1DA
S1130DB0806C87B91496EC9114974E2F50E047300D
S1130DC0510540F5FA01E65DFF4F0C949E0A86B189
S1130DD08160897F86B91EC086B18E7F82608B7FD9
S1130DE086B918C086B183608B7F86B913C086B17B
S1130DF08C7F846086B90EC086B181608D7F8460EB
S1130E0086B908C086B18E7F866086B903C086B174
S1130E10876086B913968C911397882319F08130D3
S1130E2029F007C087B18F7D87B903C087B180627D
S1130E3087B915968C91882319F0813029F007C061
S1130E4086B1886086B903C086B1877F86B986B1CA
S1130E50806886B981E0089580E00895892BF1F1D6
S1130E60862F90E088309105D8F5FC01EF5CFF4FA8
S1130E700C949E0A87B1807F87B981E0089587B179
S1130E808160817F87B981E0089587B18E7F826018
S1130E90837F87B981E0089587B18360837F87B9B1
S1130EA081E0089587B18C7F8460877F87B981E072
S1130EB0089587B181608D7F8460877F87B981E0E1
S1130EC0089587B18E7F8660877F87B981E0089512
S1130ED087B18760877F87B981E0089580E00895AE
S1130EE081E00895892B29F086B1806486B981E078
S1130EF0089580E00895FC01892B71F16115710555
S1130F0069F196B194FFFDCF9F7E96B983818823C2
S1130F1019F0813069F024C024B185B190E0982F94
S1130F208827820F911DFB019183808381E00895BE
S1130F3024B185B190E0982F8827820F911D082E47
S1130F40892F000C881F990B000C881F991FFB0127
S1130F509183808381E0089580E0089580E008957E
S1130F6081E00895FF920F931F93CF93DF9300972F
S1130F70A9F061157105A1F0F42E8B01EC010E941A
S1130F80BE066F2DCE010E942E07CE010E9472076D
S1130F90B801CE010E947B0781E003C080E001C05C
S1130FA080E0DF91CF911F910F91FF9008958032DF
S1130FB0C0F56230C0F5E82FE695E695E6958770B2
S1130FC0611117C0F0E0EE0FFF1FE458FF4F0190CE
S1130FD0F081E02D408121E030E0B90102C0660FCC
S1130FE0771F8A95E2F7CB0180958423808380E084
S1130FF008956130D1F4F0E0EE0FFF1FE458FF4F85
S11310000190F081E02D408121E030E0B90102C07F
S1131010660F771F8A95E2F7CB01842B808380E0EB
S113102008958FEF08958FEF089580E0089580323A
S1131030C0F56230C0F5E82FE695E695E695877031
S1131040611117C0F0E0EE0FFF1FEC57FF4F019046
S1131050F081E02D408121E030E0B90102C0660F4B
S1131060771F8A95E2F7CB0180958423808380E003
S113107008956130D1F4F0E0EE0FFF1FEC57FF4FFD
S11310800190F081E02D408121E030E0B90102C0FF
S1131090660F771F8A95E2F7CB01842B808380E06B
S11310A008958FEF08958FEF089580E008958032BA
S11310B0D8F4E82FE695E695E6958770F0E0EE0F14
S11310C0FF1FEC58FF4F0190F081E02D208130E0AC
S11310D0A90102C0559547958A95E2F7CA01817026
S11310E0FB01808380E008958FEF0895813061F0E3
S11310F028F0823029F0833029F00FC020E005C0A9
S113110028E003C028E401C020E493B7977B93BF91
S113111083B7822B83BF80E0089581E008959FEF19
S1131120980F973040F493B7987F93BF93B7892B68
S113113083BF80E0089581E0089583B7887F83BFEB
S113114012BE88B78E7F88BF089582BF0895FC01C0
S1131150892B29F098B79170908380E0089581E0FD
S1131160089588B7816088BF0895009761F003B639
S113117000FE05C021E0FC01208380E00895FC010D
S1131180108280E0089581E0089589B7816089BF65
S113119008950E94AC0908F481E008950E94E208D1
S11311A00C94E7090E94E00958F00E94D90940F024
S11311B029F45F3F29F00C94D00951110C941B0AB7
S11311C00C94D6090E94F80968F39923B1F35523C6
S11311D091F3951B550BBB27AA2762177307840746
S11311E038F09F5F5F4F220F331F441FAA1FA9F3DC
S11311F035D00E2E3AF0E0E832D091505040E695CA
S1131200001CCAF72BD0FE2F29D0660F771F881F2A
S1131210BB1F261737074807AB07B0E809F0BB0B1D
S1131220802DBF01FF2793585F4F3AF09E3F510531
S113123078F00C94D0090C941B0A5F3FE4F3983EB9
S1131240D4F3869577956795B795F7959F5FC9F71A
S1131250880F911D9695879597F90895E1E0660F9B
S1131260771F881FBB1F621773078407BA0720F014
S1131270621B730B840BBA0BEE1F88F7E09508957D
S11312800E94000A88F09F5798F0B92F9927B75108
S1131290B0F0E1F0660F771F881F991F1AF0BA9516
S11312A0C9F714C0B13091F00E941A0AB1E0089550
S11312B00C941A0A672F782F8827B85F39F0B93F42
S11312C0CCF3869577956795B395D9F73EF49095C9
S11312D08095709561957F4F8F4F9F4F0895E89447
S11312E009C097FB3EF490958095709561957F4F6A
S11312F08F4F9F4F9923A9F0F92F96E9BB27939518
S1131300F695879577956795B795F111F8CFFAF427
S1131310BB0F11F460FF1BC06F5F7F4F8F4F9F4F58
S113132016C0882311F096E911C0772321F09EE8B6
S1131330872F762F05C0662371F096E8862F70E01C
S113134060E02AF09A95660F771F881FDAF7880FF6
S11313509695879597F90895990F0008550FAA0B4C
S1131360E0E8FEEF16161706E807F907C0F01216B4
S11313701306E407F50798F0621B730B840B950BB7
S113138039F40A2661F0232B242B252B21F408950C
S11313900A2609F4A140A6958FEF811D811D0895A9
S11313A097F99F6780E870E060E008959FEF80EC14
S11313B0089500240A9416161706180609060895B7
S11313C000240A9412161306140605060895092E1D
S11313D00394000C11F4882352F0BB0F40F4BF2B8C
S11313E011F460FF04C06F5F7F4F8F4F9F4F0895CC
S11313F057FD9058440F551F59F05F3F71F04795C2
S1131400880F97FB991F61F09F3F79F087950895A6
S1131410121613061406551FF2CF4695F1DF08C0C5
S1131420161617061806991FF1CF869571056105E2
S113143008940895E894BB2766277727CB0197F98A
S113144008950E94340A0C94E7090E94D90938F0DF
S11314500E94E00920F0952311F00C94D0090C941B
S1131460D60911240C941B0A0E94F80970F3959F65
S1131470C1F3950F50E0551F629FF001729FBB2787
S1131480F00DB11D639FAA27F00DB11DAA1F649F23
S11314906627B00DA11D661F829F2227B00DA11DD6
S11314A0621F739FB00DA11D621F839FA00D611D5C
S11314B0221F749F3327A00D611D231F849F600D7D
S11314C0211D822F762F6A2F11249F5750409AF0A6
S11314D0F1F088234AF0EE0FFF1FBB1F661F771F32
S11314E0881F91505040A9F79E3F510580F00C94FD
S11314F0D0090C941B0A5F3FE4F3983ED4F386951D
S113150077956795B795F795E7959F5FC1F7FE2B9C
S1131510880F911D9695879597F90895DB018F9310
S11315209F930E94A40ABF91AF91A29F800D911D29
S1131530A39F900DB29F900D11240895EE0FFF1FED
S11315400590F491E02D09940E94AF0AA59F900D97
S1131550B49F900DA49F800D911D11240895A29F06
S1131560B001B39FC001A39F700D811D1124911D73
S1131570B29F700D811D1124911D0895BB274A301F
S113158031F4992322F4BDE2909581959F4F0C94F8
S1131590CA0ABB27FB015527AA27880F991FAA1F30
S11315A0A41710F0A41B83955051B9F7A05DAA337A
S11315B008F0A95DA193009779F7B111B193119245
S11315C0CB010C94E30ADC01FC01672F71917723B2
S11315D0E1F7329704C07C916D9370836291AE17EA
S10D15E0BF07C8F30895F894FFCF85
S11315EA140C00040E0E1F00040004050607000074
S11315FA0100050139003600330030003A00370093
S113160A340031003B003800350032007C7C7C7C9D
S113161A7C7C7C7C7C7C7C7C7C7C7C7C0057656CC4
S113162A636F6D6521002044656661756C7420746E
S113163A656D703A005069636B2074656D706572EC
S113164A61747572650054686973204F70657261BC
S113165A74696F6E006973206E6F7420616C6C6FAD
S113166A776564210043757272656E742074656DC2
S113167A70200043757272656E742074656D703AD9
S10F168A200001000800400009010004D9
S9030000FC
