S0160000416972436F6E646974696F6E65722E7372656374
S11300000C9439000C9456000C9456000C94560031
S11300100C9456000C9456000C9456000C94560004
S11300200C9456000C9456000C9456000C945600F4
S11300300C9456000C9456000C9456000C945600E4
S11300400C9456000C9456000C9456000C945600D4
S11300500C945600830688068E06930698069E0620
S1130060A306D606DB06E106E806EE06F506FD065F
S1130070040711241FBECFE5D8E0DEBFCDBF11E0D9
S1130080A0E6B0E0E6E0F6E102C005900D92AC30E7
S1130090B107D9F721E0ACE0B1E001C01D92A8316D
S11300A0B207E1F70E9455060C94010B0C94000072
S11300B00E94710562E170E080E090E00E94B0056A
S11300C06EE080E00E94840563E270E080E090E0EE
S11300D00E94B00567E080E00E94840560916000A2
S11300E070E080E090E00E94B00560E081E00E9452
S11300F084058CE890E00E9498056091600062514C
S11301006093110181E00E94840508950E94BE0459
S11301100E94040383E191E00E94F20581E690E0ED
S11301200E94440261E082E690E00E94CF0564E010
S113013080E00E9484058DE990E00E94980542E0E9
S113014061E070E080E090E00E945C020E94710532
S113015086EA90E00E94980567E081E00E948405A9
S113016064E170E080E090E00E94B00542E061E06C
S113017070E080E090E00E945C020E94710585EBD3
S113018090E00E94980541E064EF71E080E090E027
S11301900E945C020E94580008954F925F926F92F1
S11301A07F928F929F92AF92BF92CF92DF92EF9203
S11301B0FF920E944F0499278230910509F47FC071
S11301C034F4009761F0019709F441C0ADC0833065
S11301D0910509F499C0049709F4A3C0A5C08091BE
S11301E0120181111CC0809111018F3009F49CC04F
S11301F067E080E00E948405609160006F5F609317
S1130200600070E080E090E00E94B0056091110110
S11302106F5F6093110181E00E94840585C00E9494
S1130220710586EC90E00E94980560E081E00E94F0
S1130230840585ED90E00E94980541E064EF71E04B
S113024080E090E00E945C020E9471056DC0809184
S1130250120181111CC080911101882309F464C02A
S113026067E080E00E9484056091600061506093C3
S1130270600070E080E090E00E94B00560911101A0
S113028061506093110181E00E9484054DC00E9479
S1130290710586EC90E00E94980560E081E00E9480
S11302A0840585ED90E00E94980541E064EF71E0DB
S11302B080E090E00E945C020E94710535C080914C
S11302C01201811109C081E0809312018CE00E9427
S11302D05A040E94710528C00E94710586EC90E0C2
S11302E00E94980560E081E00E94840585ED90E01D
S11302F00E94980541E064EF71E080E090E00E9484
S11303005C020E94710510C01092120160E081E647
S113031090E00E9452028EE00E945A040E9458000B
S113032003C084E18093600081E080930C016DE060
S113033071E083E191E00E94F80580900D019090B6
S11303400E01A0900F01B0901001C501B4010E94EC
S113035049096B017C010E9478092B013C019B0136
S1130360AC01C501B4010E94650820E030E040E022
S11303705FE30E942A0A88238CF0C701B6016F5FED
S11303807F4F8F4F9F4F0E94780960930D017093A8
S11303900E0180930F019093100108C040920D014B
S11303A050920E0160920F017092100160916000F2
S11303B070E080E090E00E947A0920910D01309174
S11303C00E0140910F01509110010E94D208882320
S11303D08CF580911201882369F160E080E00E942D
S11303E0840581E00E940D0585EE90E00E94980549
S11303F060910D0170910E0180910F019091100197
S11304000E9449090E94B00561E081E690E00E94E3
S113041052026EE080E00E94840560910D017091AB
S11304200E0180910F01909110010E9449090E94D0
S1130430B0051DC0809112018823C9F060E081E6F7
S113044090E00E94520260E080E00E94840583EF05
S113045090E00E94980560910D0170910E018091C9
S11304600F01909110010E9449090E94B005FF906C
S1130470EF90DF90CF90BF90AF909F908F907F9040
S11304806F905F904F900895CF93DF93EC0161E0FC
S113049088810E94730760E088810E94B307DF911E
S11304A0CF910895009731F0FC0180810E94B30739
S11304B080E0089581E008958F929F92AF92BF9259
S11304C0CF92DF92EF92FF920F931F93CF93DF931C
S11304D000D0CDB7DEB76B017C01423059F49B01EB
S11304E0AC0160E472E48FE090E00E949C0A6B012E
S11304F07C010DC0413049F4A8EEB3E09B01AC018E
S11305000E94B20A6B017C0102C041116DC088E8EF
S1130510C81683E1D806E104F104C8F088EAC816D5
S113052081E6D806E104F104A0F088E4C81688EE58
S1130530D80681E0E806F10470F080E2C81681EA8A
S1130540D80687E0E806F10440F414E007C011E09F
S113055005C012E003C013E001C015E0E12FF0E094
S11305603197EE0FFF1FEE5FFE4F60817181729530
S113057062956F7067277F70672780E090E00E9424
S113058078094B015C01C701B6010E947809A501F5
S113059094010E94D7080E944909F62E072F0E9451
S11305A0610880E00E9412088F2D81950E94410805
S11305B0812F0E942B0810E011C0CE0101960E94E9
S11305C04308CE0102960E9451088981811103C01B
S11305D08A818111F2CF0E944D081F5F011768F7CD
S11305E00E94390880E001C081E00F900F90DF91F4
S11305F0CF911F910F91FF90EF90DF90CF90BF901C
S1130600AF909F908F90089561E082E10E947307FC
S113061061E083E10E94730761E084E10E94730753
S113062060E085E10E94730760E086E10E94730741
S113063060E087E10E9473070895CF93DF931F92D0
S1130640CDB7DEB761E085E10E94B30761E086E1E2
S11306500E94B30761E087E10E94B30761E083E190
S11306600E94B30761E084E10E94B30760E082E185
S11306700E94B30781E08983BE016F5F7F4F85E1EC
S11306800E94F3078981882339F00BC0BE016F5F94
S11306907F4F85E10E94F30789818823B9F380E0C5
S11306A02EC081E08983BE016F5F7F4F86E10E9487
S11306B0F3078981882339F00BC0BE016F5F7F4F38
S11306C086E10E94F30789818823B9F381E017C08A
S11306D081E08983BE016F5F7F4F87E10E94F3074A
S11306E08981882341F089E00AC0BE016F5F7F4F92
S11306F087E10E94F30789818823B9F382E00F9090
S1130700DF91CF910895CF93DF931F92CDB7DEB7DA
S113071061E085E10E94B30761E086E10E94B307CE
S113072061E087E10E94B30761E082E10E94B307C0
S113073061E084E10E94B30760E083E10E94B307B3
S113074081E08983BE016F5F7F4F85E10E94F307DB
S11307508981882339F00BC0BE016F5F7F4F85E12B
S11307600E94F30789818823B9F383E02EC081E0D6
S11307708983BE016F5F7F4F86E10E94F307898101
S1130780882339F00BC0BE016F5F7F4F86E10E9462
S1130790F30789818823B9F384E017C081E0898352
S11307A0BE016F5F7F4F87E10E94F3078981882331
S11307B041F089E00AC0BE016F5F7F4F87E10E946C
S11307C0F30789818823B9F383E00F90DF91CF91F8
S11307D00895CF93DF931F92CDB7DEB761E085E133
S11307E00E94B30761E086E10E94B30761E087E1FC
S11307F00E94B30761E082E10E94B30761E083E1F4
S11308000E94B30760E084E10E94B30781E089831A
S1130810BE016F5F7F4F85E10E94F30789818823C2
S113082039F00BC0BE016F5F7F4F85E10E94F30773
S113083089818823B9F386E02EC081E08983BE01D3
S11308406F5F7F4F86E10E94F3078981882339F027
S11308500BC0BE016F5F7F4F86E10E94F307898161
S11308608823B9F387E017C081E08983BE016F5FF5
S11308707F4F87E10E94F3078981882341F089E053
S11308800AC0BE016F5F7F4F87E10E94F307898131
S11308908823B9F388E00F90DF91CF9108950E94E7
S11308A01D03893031F40E948303893011F40E94BE
S11308B0E90308951F93CF93DF93D82F60E082E07C
S11308C00E94B30760E081E00E94B3071D2F1295D8
S11308D01F70C0E011C0EC2FF0E0612F70E00C2E0F
S11308E002C0759567950A94E2F76170E659FF4F67
S11308F080810E94B307CF5FC43068F361E083E076
S11309000E94B30789EF90E00197F1F700C000005F
S113091060E083E00E94B30792E49A95F1F700C087
S1130920DF70C0E011C0EC2FF0E06D2F70E00C2EF2
S113093002C0759567950A94E2F76170E659FF4F16
S113094080810E94B307CF5FC43068F361E083E025
S11309500E94B30789EF90E00197F1F700C000000F
S113096060E083E00E94B30783EF91E00197F1F721
S113097000C00000DF91CF911F910895CF93C0E094
S113098009C0EC2FF0E0E659FF4F61E080810E943E
S11309907307CF5FC430A8F361E081E00E9473075E
S11309A061E082E00E94730761E083E00E947307C4
S11309B08FE097E20197F1F700C0000082E00E9407
S11309C05A0489EF90E00197F1F700C0000088E233
S11309D00E945A0489EF90E00197F1F700C00000EB
S11309E081E00E945A0487EE93E00197F1F700C07A
S11309F0000086E00E945A0489EF90E00197F1F725
S1130A0000C000008EE00E945A0489EF90E0019734
S1130A10F1F700C00000CF9108951F93CF93DF93A7
S1130A20D82F60E082E00E94B30761E081E00E9479
S1130A30B3071D2F12951F70C0E011C0EC2FF0E01A
S1130A40612F70E00C2E02C0759567950A94E2F749
S1130A506170E659FF4F80810E94B307CF5FC430B5
S1130A6068F361E083E00E94B30789EF90E00197A7
S1130A70F1F700C0000060E083E00E94B30792E455
S1130A809A95F1F700C0DF70C0E011C0EC2FF0E0E0
S1130A906D2F70E00C2E02C0759567950A94E2F7ED
S1130AA06170E659FF4F80810E94B307CF5FC43065
S1130AB068F361E083E00E94B30789EF90E0019757
S1130AC0F1F700C0000060E083E00E94B30783EF09
S1130AD091E00197F1F700C00000DF91CF911F91E1
S1130AE0089581E00E945A0487EE93E00197F1F79C
S1130AF000C0000082E00E945A0487EE93E0019750
S1130B00F1F700C000000895811108C0603130F48D
S1130B10862F8F7080680E945A040895813039F4BA
S1130B20603128F4862F8F70806C0E945A040895D7
S1130B300F931F93CF93DF938C01FC018081C0E05E
S1130B40D0E007C00E940D052196F801EC0FFD1FAF
S1130B5080818111F7CFDF91CF911F910F9108957B
S1130B60CF93DF93CDB7DEB72A970FB6F894DEBFE5
S1130B700FBECDBFDC01CB014AE0BE016F5F7F4FEA
S1130B800E94CC0ACE0101960E9498052A960FB6BF
S1130B90F894DEBF0FBECDBFDF91CF9108950F93C0
S1130BA01F93CF936830D0F48C01862F90E0089681
S1130BB0880F880F880F0E945A0489EF90E00197EC
S1130BC0F1F700C00000C0E007C0F801EC0FF11D10
S1130BD080810E940D05CF5FC830B8F3CF911F917B
S1130BE00F91089560E0FC0180810E9473070895CD
S1130BF00F931F93CF93DF9300D0CDB7DEB7892B2C
S1130C0009F449C06115710509F447C08B0140E03E
S1130C10BE016F5F7F4F8EE690E00E944E07809189
S1130C207000813069F480E090E0A0EABBE3809337
S1130C30140190931501A0931601B09317010EC0EF
S1130C40833061F48AE097EDA3E2BBE3809314015F
S1130C5090931501A0931601B093170189819A818D
S1130C6024E6289FB001299F700D112480E090E0B4
S1130C700E947809209114013091150140911601C8
S1130C80509117010E942F0AF801608371838283B7
S1130C90938380E003C081E001C081E00F900F9056
S1130CA0DF91CF911F910F9108950E9486000E94B9
S1130CB0CD00FDCFDC01892B09F46AC086B18F77A2
S1130CC086B912968C911297813041F018F08330D6
S1130CD051F00CC087B18F7387B908C087B18064A5
S1130CE08F7787B903C087B1806C87B91496EC916C
S1130CF014974E2F50E04730510540F5FA01E65D58
S1130D00FF4F0C94AC0A86B18160897F86B91EC0FE
S1130D1086B18E7F82608B7F86B918C086B183606E
S1130D208B7F86B913C086B18C7F846086B90EC070
S1130D3086B181608D7F846086B908C086B18E7F5C
S1130D40866086B903C086B1876086B913968C9194
S1130D501397882319F0813029F007C087B18F7D5C
S1130D6087B903C087B1806287B915968C918823AF
S1130D7019F0813029F007C086B1886086B903C0B4
S1130D8086B1877F86B986B1806886B981E0089587
S1130D9080E00895892BF1F1862F90E08830910549
S1130DA0D8F5FC01EF5CFF4F0C94AC0A87B1807F4F
S1130DB087B981E0089587B18160817F87B981E037
S1130DC0089587B18E7F8260837F87B981E008951B
S1130DD087B18360837F87B981E0089587B18C7F71
S1130DE08460877F87B981E0089587B181608D7FB2
S1130DF08460877F87B981E0089587B18E7F86609C
S1130E00877F87B981E0089587B18760877F87B935
S1130E1081E0089580E0089581E00895892B29F008
S1130E2086B1806486B981E0089580E00895FC016C
S1130E30892B71F16115710569F196B194FFFDCFAC
S1130E409F7E96B98381882319F0813069F024C08C
S1130E5024B185B190E0982F8827820F911DFB0162
S1130E609183808381E0089524B185B190E0982F27
S1130E708827820F911D082E892F000C881F990B3B
S1130E80000C881F991FFB019183808381E00895E2
S1130E9080E0089580E0089581E00895FF920F9323
S1130EA01F93CF93DF930097A9F061157105A1F00B
S1130EB0F42E8B01EC010E945A066F2DCE010E9484
S1130EC0CA06CE010E940E07B801CE010E94170780
S1130ED081E003C080E001C080E0DF91CF911F91E9
S1130EE00F91FF9008958032C0F56230C0F5E82F6D
S1130EF0E695E695E6958770611117C0F0E0EE0F70
S1130F00FF1FE458FF4F0190F081E02D408121E064
S1130F1030E0B90102C0660F771F8A95E2F7CB0172
S1130F2080958423808380E008956130D1F4F0E0DB
S1130F30EE0FFF1FE458FF4F0190F081E02D408138
S1130F4021E030E0B90102C0660F771F8A95E2F70D
S1130F50CB01842B808380E008958FEF08958FEF79
S1130F60089580E008958032C0F56230C0F5E82F1E
S1130F70E695E695E6958770611117C0F0E0EE0FEF
S1130F80FF1FEC57FF4F0190F081E02D408121E0DD
S1130F9030E0B90102C0660F771F8A95E2F7CB01F2
S1130FA080958423808380E008956130D1F4F0E05B
S1130FB0EE0FFF1FEC57FF4F0190F081E02D4081B1
S1130FC021E030E0B90102C0660F771F8A95E2F78D
S1130FD0CB01842B808380E008958FEF08958FEFF9
S1130FE0089580E008958032D8F4E82FE695E695D8
S1130FF0E6958770F0E0EE0FFF1FEC58FF4F01906D
S1131000F081E02D208130E0A90102C0559547957B
S11310108A95E2F7CA018170FB01808380E008951C
S11310208FEF0895813061F028F0823029F0833009
S113103029F00FC020E005C028E003C028E401C067
S113104020E493B7977B93BF83B7822B83BF80E061
S1131050089581E008959FEF980F973040F493B777
S1131060987F93BF93B7892B83BF80E0089581E075
S1131070089583B7887F83BF12BE88B78E7F88BFE9
S1131080089582BF0895FC01892B29F098B79170C7
S1131090908380E0089581E0089588B7816088BFD7
S11310A00895009761F003B600FE05C021E0FC013D
S11310B0208380E00895FC01108280E0089581E09F
S11310C0089589B78E7F89BF08955058BB27AA27F2
S11310D00E947D080C94F0090E94E20938F00E94F5
S11310E0E90920F039F49F3F19F426F40C94DF0940
S11310F00EF4E095E7FB0C94D909E92F0E94010A4C
S113110058F3BA17620773078407950720F079F438
S1131110A6F50C94230A0EF4E0950B2EBA2FA02DFD
S11311200B01B90190010C01CA01A0011124FF2790
S1131130591B99F0593F50F4503E68F11A16F0408B
S1131140A22F232F342F4427585FF3CF469537958A
S11311502795A795F0405395C9F77EF41F16BA0B4F
S1131160620B730B840BBAF09150A1F0FF0FBB1FFD
S1131170661F771F881FC2F70EC0BA0F621F731F46
S1131180841F48F4879577956795B795F7959E3FA3
S113119008F0B0CF9395880F08F09927EE0F979534
S11311A0879508950E94B50908F481E008950E9486
S11311B0EB080C94F0090E94E90958F00E94E20936
S11311C040F029F45F3F29F00C94D90951110C9493
S11311D0240A0C94DF090E94010A68F39923B1F3ED
S11311E0552391F3951B550BBB27AA276217730749
S11311F0840738F09F5F5F4F220F331F441FAA1FDD
S1131200A9F335D00E2E3AF0E0E832D09150504098
S1131210E695001CCAF72BD0FE2F29D0660F771F46
S1131220881FBB1F261737074807AB07B0E809F02C
S1131230BB0B802DBF01FF2793585F4F3AF09E3FB1
S1131240510578F00C94D9090C94240A5F3FE4F317
S1131250983ED4F3869577956795B795F7959F5FF4
S1131260C9F7880F911D9695879597F90895E1E040
S1131270660F771F881FBB1F621773078407BA079F
S113128020F0621B730B840BBA0BEE1F88F7E095FA
S113129008950E94090A88F09F5798F0B92F99275A
S11312A0B751B0F0E1F0660F771F881F991F1AF04D
S11312B0BA95C9F714C0B13091F00E94230AB1E085
S11312C008950C94230A672F782F8827B85F39F084
S11312D0B93FCCF3869577956795B395D9F73EF4E6
S11312E090958095709561957F4F8F4F9F4F08958E
S11312F0E89409C097FB3EF49095809570956195AC
S11313007F4F8F4F9F4F9923A9F0F92F96E9BB2761
S11313109395F695879577956795B795F111F8CFDD
S1131320FAF4BB0F11F460FF1BC06F5F7F4F8F4F48
S11313309F4F16C0882311F096E911C0772321F03E
S11313409EE8872F762F05C0662371F096E8862FD6
S113135070E060E02AF09A95660F771F881FDAF72D
S1131360880F9695879597F90895990F0008550F5A
S1131370AA0BE0E8FEEF16161706E807F907C0F017
S113138012161306E407F50798F0621B730B840B1F
S1131390950B39F40A2661F0232B242B252B21F4F9
S11313A008950A2609F4A140A6958FEF811D811D99
S11313B0089597F99F6780E870E060E008959FEFD3
S11313C080EC089500240A941616170618060906D8
S11313D0089500240A9412161306140605060895A7
S11313E0092E0394000C11F4882352F0BB0F40F42F
S11313F0BF2B11F460FF04C06F5F7F4F8F4F9F4F6F
S1131400089557FD9058440F551F59F05F3F71F0F0
S11314104795880F97FB991F61F09F3F79F0879557
S11314200895121613061406551FF2CF4695F1DFE0
S113143008C0161617061806991FF1CF8695710570
S1131440610508940895E894BB2766277727CB01A4
S113145097F908950E94B50908F48FEF08950E9442
S1131460420A0C94F0090E94E20938F00E94E9094A
S113147020F0952311F00C94D9090C94DF09112460
S11314800C94240A0E94010A70F3959FC1F3950FEE
S113149050E0551F629FF001729FBB27F00DB11DF4
S11314A0639FAA27F00DB11DAA1F649F6627B00D84
S11314B0A11D661F829F2227B00DA11D621F739F6D
S11314C0B00DA11D621F839FA00D611D221F749F7B
S11314D03327A00D611D231F849F600D211D822FC2
S11314E0762F6A2F11249F5750409AF0F1F08823E9
S11314F04AF0EE0FFF1FBB1F661F771F881F915016
S11315005040A9F79E3F510580F00C94D9090C94E2
S1131510240A5F3FE4F3983ED4F386957795679564
S1131520B795F795E7959F5FC1F7FE2B880F911D3F
S11315309695879597F90895DB018F939F930E9461
S1131540B20ABF91AF91A29F800D911DA39F900DF0
S1131550B29F900D11240895EE0FFF1F0590F49192
S1131560E02D09940E94BD0AA59F900DB49F900D93
S1131570A49F800D911D11240895A29FB001B39FD3
S1131580C001A39F700D811D1124911DB29F700D88
S1131590811D1124911D0895BB274A3031F49923EC
S11315A022F4BDE2909581959F4F0C94D80ABB27F5
S11315B0FB015527AA27880F991FAA1FA41710F00B
S11315C0A41B83955051B9F7A05DAA3308F0A95D17
S11315D0A193009779F7B111B1931192CB010C94B7
S11315E0F10ADC01FC01672F71917723E1F732974F
S11315F004C07C916D9370836291AE17BF07C8F3EA
S10916000895F894FFCFE9
S1131606140C040E0E0E1F00040004050607000049
S11316160100050139003600330030003A00370076
S1131626340031003B003800350032007C7C7C7C81
S11316367C7C7C7C7C7C7C7C7C7C7C7C0057656CA8
S1131646636F6D6521002044656661756C74207452
S1131656656D703A005069636B2074656D706572D0
S113166661747572650054686973204F70657261A0
S113167674696F6E006973206E6F7420616C6C6F91
S1131686776564210043757272656E742074656DA6
S113169670200043757272656E742074656D703ABD
S10F16A6200001000800400009010004BD
S9030000FC
